{
	"data": {
		"bytecode": {
			"linkReferences": {},
			"object": "608060405234801561001057600080fd5b5061026a806100206000396000f3fe6080604052600436106100565763ffffffff7c01000000000000000000000000000000000000000000000000000000006000350416633de4eb17811461005b57806343ae80d3146100a95780638588b2c5146100fc575b600080fd5b34801561006757600080fd5b50610070610138565b604051808261020080838360005b8381101561009657818101518382015260200161007e565b5050505090500191505060405180910390f35b3480156100b557600080fd5b506100d3600480360360208110156100cc57600080fd5b503561018b565b6040805173ffffffffffffffffffffffffffffffffffffffff9092168252519081900360200190f35b34801561010857600080fd5b506101266004803603602081101561011f57600080fd5b50356101b5565b60408051918252519081900360200190f35b61014061021e565b604080516102008101918290529060009060109082845b815473ffffffffffffffffffffffffffffffffffffffff168152600190910190602001808311610157575050505050905090565b6000816010811061019857fe5b015473ffffffffffffffffffffffffffffffffffffffff16905081565b60008082101580156101c85750600f8211155b15156101d357600080fd5b33600083601081106101e157fe5b01805473ffffffffffffffffffffffffffffffffffffffff191673ffffffffffffffffffffffffffffffffffffffff929092169190911790555090565b61020060405190810160405280601090602082028038833950919291505056fea165627a7a723058204b1dc653b064e441991847cd06dce7e3dbc77d70a32a00b2a9009b355f6784a00029",
			"opcodes": "PUSH1 0x80 PUSH1 0x40 MSTORE CALLVALUE DUP1 ISZERO PUSH2 0x10 JUMPI PUSH1 0x0 DUP1 REVERT JUMPDEST POP PUSH2 0x26A DUP1 PUSH2 0x20 PUSH1 0x0 CODECOPY PUSH1 0x0 RETURN INVALID PUSH1 0x80 PUSH1 0x40 MSTORE PUSH1 0x4 CALLDATASIZE LT PUSH2 0x56 JUMPI PUSH4 0xFFFFFFFF PUSH29 0x100000000000000000000000000000000000000000000000000000000 PUSH1 0x0 CALLDATALOAD DIV AND PUSH4 0x3DE4EB17 DUP2 EQ PUSH2 0x5B JUMPI DUP1 PUSH4 0x43AE80D3 EQ PUSH2 0xA9 JUMPI DUP1 PUSH4 0x8588B2C5 EQ PUSH2 0xFC JUMPI JUMPDEST PUSH1 0x0 DUP1 REVERT JUMPDEST CALLVALUE DUP1 ISZERO PUSH2 0x67 JUMPI PUSH1 0x0 DUP1 REVERT JUMPDEST POP PUSH2 0x70 PUSH2 0x138 JUMP JUMPDEST PUSH1 0x40 MLOAD DUP1 DUP3 PUSH2 0x200 DUP1 DUP4 DUP4 PUSH1 0x0 JUMPDEST DUP4 DUP2 LT ISZERO PUSH2 0x96 JUMPI DUP2 DUP2 ADD MLOAD DUP4 DUP3 ADD MSTORE PUSH1 0x20 ADD PUSH2 0x7E JUMP JUMPDEST POP POP POP POP SWAP1 POP ADD SWAP2 POP POP PUSH1 0x40 MLOAD DUP1 SWAP2 SUB SWAP1 RETURN JUMPDEST CALLVALUE DUP1 ISZERO PUSH2 0xB5 JUMPI PUSH1 0x0 DUP1 REVERT JUMPDEST POP PUSH2 0xD3 PUSH1 0x4 DUP1 CALLDATASIZE SUB PUSH1 0x20 DUP2 LT ISZERO PUSH2 0xCC JUMPI PUSH1 0x0 DUP1 REVERT JUMPDEST POP CALLDATALOAD PUSH2 0x18B JUMP JUMPDEST PUSH1 0x40 DUP1 MLOAD PUSH20 0xFFFFFFFFFFFFFFFFFFFFFFFFFFFFFFFFFFFFFFFF SWAP1 SWAP3 AND DUP3 MSTORE MLOAD SWAP1 DUP2 SWAP1 SUB PUSH1 0x20 ADD SWAP1 RETURN JUMPDEST CALLVALUE DUP1 ISZERO PUSH2 0x108 JUMPI PUSH1 0x0 DUP1 REVERT JUMPDEST POP PUSH2 0x126 PUSH1 0x4 DUP1 CALLDATASIZE SUB PUSH1 0x20 DUP2 LT ISZERO PUSH2 0x11F JUMPI PUSH1 0x0 DUP1 REVERT JUMPDEST POP CALLDATALOAD PUSH2 0x1B5 JUMP JUMPDEST PUSH1 0x40 DUP1 MLOAD SWAP2 DUP3 MSTORE MLOAD SWAP1 DUP2 SWAP1 SUB PUSH1 0x20 ADD SWAP1 RETURN JUMPDEST PUSH2 0x140 PUSH2 0x21E JUMP JUMPDEST PUSH1 0x40 DUP1 MLOAD PUSH2 0x200 DUP2 ADD SWAP2 DUP3 SWAP1 MSTORE SWAP1 PUSH1 0x0 SWAP1 PUSH1 0x10 SWAP1 DUP3 DUP5 JUMPDEST DUP2 SLOAD PUSH20 0xFFFFFFFFFFFFFFFFFFFFFFFFFFFFFFFFFFFFFFFF AND DUP2 MSTORE PUSH1 0x1 SWAP1 SWAP2 ADD SWAP1 PUSH1 0x20 ADD DUP1 DUP4 GT PUSH2 0x157 JUMPI POP POP POP POP POP SWAP1 POP SWAP1 JUMP JUMPDEST PUSH1 0x0 DUP2 PUSH1 0x10 DUP2 LT PUSH2 0x198 JUMPI INVALID JUMPDEST ADD SLOAD PUSH20 0xFFFFFFFFFFFFFFFFFFFFFFFFFFFFFFFFFFFFFFFF AND SWAP1 POP DUP2 JUMP JUMPDEST PUSH1 0x0 DUP1 DUP3 LT ISZERO DUP1 ISZERO PUSH2 0x1C8 JUMPI POP PUSH1 0xF DUP3 GT ISZERO JUMPDEST ISZERO ISZERO PUSH2 0x1D3 JUMPI PUSH1 0x0 DUP1 REVERT JUMPDEST CALLER PUSH1 0x0 DUP4 PUSH1 0x10 DUP2 LT PUSH2 0x1E1 JUMPI INVALID JUMPDEST ADD DUP1 SLOAD PUSH20 0xFFFFFFFFFFFFFFFFFFFFFFFFFFFFFFFFFFFFFFFF NOT AND PUSH20 0xFFFFFFFFFFFFFFFFFFFFFFFFFFFFFFFFFFFFFFFF SWAP3 SWAP1 SWAP3 AND SWAP2 SWAP1 SWAP2 OR SWAP1 SSTORE POP SWAP1 JUMP JUMPDEST PUSH2 0x200 PUSH1 0x40 MLOAD SWAP1 DUP2 ADD PUSH1 0x40 MSTORE DUP1 PUSH1 0x10 SWAP1 PUSH1 0x20 DUP3 MUL DUP1 CODESIZE DUP4 CODECOPY POP SWAP2 SWAP3 SWAP2 POP POP JUMP INVALID LOG1 PUSH6 0x627A7A723058 KECCAK256 0x4b SAR 0xc6 MSTORE8 0xb0 PUSH5 0xE441991847 0xcd MOD 0xdc 0xe7 0xe3 0xdb 0xc7 PUSH30 0x70A32A00B2A9009B355F6784A00029000000000000000000000000000000 "
		},
		"gasEstimates": {
			"creation": {
				"codeDepositCost": "123600",
				"executionCost": "171",
				"totalCost": "123771"
			},
			"external": {
				"adopt(uint256)": "20614",
				"adopters(uint256)": "497",
				"getAdopters()": "infinite"
			}
		},
		"methodIdentifiers": {
			"adopt(uint256)": "8588b2c5",
			"adopters(uint256)": "43ae80d3",
			"getAdopters()": "3de4eb17"
		}
	},
	"abi": [
		{
			"constant": true,
			"inputs": [],
			"name": "getAdopters",
			"outputs": [
				{
					"name": "",
					"type": "address[16]"
				}
			],
			"payable": false,
			"stateMutability": "view",
			"type": "function"
		},
		{
			"constant": true,
			"inputs": [
				{
					"name": "",
					"type": "uint256"
				}
			],
			"name": "adopters",
			"outputs": [
				{
					"name": "",
					"type": "address"
				}
			],
			"payable": false,
			"stateMutability": "view",
			"type": "function"
		},
		{
			"constant": false,
			"inputs": [
				{
					"name": "petId",
					"type": "uint256"
				}
			],
			"name": "adopt",
			"outputs": [
				{
					"name": "",
					"type": "uint256"
				}
			],
			"payable": false,
			"stateMutability": "nonpayable",
			"type": "function"
		}
	]
}